{"timestamp":"2024-09-08T05:43:48.507Z","type":"test_start","uuid":"372c870d-4a66-49c1-b7ef-22b00f8a2043","test_function":"pkpSign","lit_network":"datil-dev","total_runs":"3","parallel_runs":"1","delay_between_tests":"2000","log_file_path":"./logs/datil-dev-pkp-sign-test-log-2024-09-08T05-43-48.500Z.log"}
{"timestamp":"2024-09-08T05:43:52.764Z","type":"test_result","index":1,"totalRuns":3,"status":"error","error":"nonce has already been used [ See: https://links.ethers.org/v5-errors-NONCE_EXPIRED ] (error={\"reason\":\"processing response error\",\"code\":\"SERVER_ERROR\",\"body\":\"{\\\"jsonrpc\\\":\\\"2.0\\\",\\\"error\\\":{\\\"code\\\":-32000,\\\"message\\\":\\\"nonce too low: address 0x6428B9170f12EaC6aBA3835775D2bf27e2D6EAd4, tx: 497 state: 498\\\"},\\\"id\\\":53}\\n\",\"error\":{\"code\":-32000},\"requestBody\":\"{\\\"method\\\":\\\"eth_sendRawTransaction\\\",\\\"params\\\":[\\\"0x02f8948302ac548201f18459682f00845a995c0083350b939402c4242f72d62c8fef2b2db088a35a9f4ec741c701a45d228b160000000000000000000000000000000000000000000000000000000000000002c001a0715b93f55138aa6e0430bd9b39196cac0db5b46b6740645f921354ed1936dab2a0722391ea8d50f3d8d6294fbd92093ee66ff4a95ecc4831645394d7cd6aa804c5\\\"],\\\"id\\\":53,\\\"jsonrpc\\\":\\\"2.0\\\"}\",\"requestMethod\":\"POST\",\"url\":\"https://yellowstone-rpc.litprotocol.com/\"}, method=\"sendTransaction\", transaction=\"0x02f8948302ac548201f18459682f00845a995c0083350b939402c4242f72d62c8fef2b2db088a35a9f4ec741c701a45d228b160000000000000000000000000000000000000000000000000000000000000002c001a0715b93f55138aa6e0430bd9b39196cac0db5b46b6740645f921354ed1936dab2a0722391ea8d50f3d8d6294fbd92093ee66ff4a95ecc4831645394d7cd6aa804c5\", code=NONCE_EXPIRED, version=providers/5.7.2)","stack":"Error: nonce has already been used [ See: https://links.ethers.org/v5-errors-NONCE_EXPIRED ] (error={\"reason\":\"processing response error\",\"code\":\"SERVER_ERROR\",\"body\":\"{\\\"jsonrpc\\\":\\\"2.0\\\",\\\"error\\\":{\\\"code\\\":-32000,\\\"message\\\":\\\"nonce too low: address 0x6428B9170f12EaC6aBA3835775D2bf27e2D6EAd4, tx: 497 state: 498\\\"},\\\"id\\\":53}\\n\",\"error\":{\"code\":-32000},\"requestBody\":\"{\\\"method\\\":\\\"eth_sendRawTransaction\\\",\\\"params\\\":[\\\"0x02f8948302ac548201f18459682f00845a995c0083350b939402c4242f72d62c8fef2b2db088a35a9f4ec741c701a45d228b160000000000000000000000000000000000000000000000000000000000000002c001a0715b93f55138aa6e0430bd9b39196cac0db5b46b6740645f921354ed1936dab2a0722391ea8d50f3d8d6294fbd92093ee66ff4a95ecc4831645394d7cd6aa804c5\\\"],\\\"id\\\":53,\\\"jsonrpc\\\":\\\"2.0\\\"}\",\"requestMethod\":\"POST\",\"url\":\"https://yellowstone-rpc.litprotocol.com/\"}, method=\"sendTransaction\", transaction=\"0x02f8948302ac548201f18459682f00845a995c0083350b939402c4242f72d62c8fef2b2db088a35a9f4ec741c701a45d228b160000000000000000000000000000000000000000000000000000000000000002c001a0715b93f55138aa6e0430bd9b39196cac0db5b46b6740645f921354ed1936dab2a0722391ea8d50f3d8d6294fbd92093ee66ff4a95ecc4831645394d7cd6aa804c5\", code=NONCE_EXPIRED, version=providers/5.7.2)\n    at Logger.Object.<anonymous>.Logger.makeError (/Users/anshs/Folder/works/lit/forks/lit-monitoring/server/node_modules/@ethersproject/logger/src.ts/index.ts:269:28)\n    at Logger.Object.<anonymous>.Logger.throwError (/Users/anshs/Folder/works/lit/forks/lit-monitoring/server/node_modules/@ethersproject/logger/src.ts/index.ts:281:20)\n    at checkError (/Users/anshs/Folder/works/lit/forks/lit-monitoring/server/node_modules/@ethersproject/providers/src.ts/json-rpc-provider.ts:105:16)\n    at JsonRpcProvider.<anonymous> (/Users/anshs/Folder/works/lit/forks/lit-monitoring/server/node_modules/@ethersproject/providers/src.ts/json-rpc-provider.ts:642:20)\n    at step (/Users/anshs/Folder/works/lit/forks/lit-monitoring/server/node_modules/@ethersproject/providers/lib/json-rpc-provider.js:48:23)\n    at Object.throw (/Users/anshs/Folder/works/lit/forks/lit-monitoring/server/node_modules/@ethersproject/providers/lib/json-rpc-provider.js:29:53)\n    at rejected (/Users/anshs/Folder/works/lit/forks/lit-monitoring/server/node_modules/@ethersproject/providers/lib/json-rpc-provider.js:21:65)\n    at processTicksAndRejections (node:internal/process/task_queues:95:5)","fullError":"{\"reason\":\"nonce has already been used\",\"code\":\"NONCE_EXPIRED\",\"error\":{\"reason\":\"processing response error\",\"code\":\"SERVER_ERROR\",\"body\":\"{\\\"jsonrpc\\\":\\\"2.0\\\",\\\"error\\\":{\\\"code\\\":-32000,\\\"message\\\":\\\"nonce too low: address 0x6428B9170f12EaC6aBA3835775D2bf27e2D6EAd4, tx: 497 state: 498\\\"},\\\"id\\\":53}\\n\",\"error\":{\"code\":-32000},\"requestBody\":\"{\\\"method\\\":\\\"eth_sendRawTransaction\\\",\\\"params\\\":[\\\"0x02f8948302ac548201f18459682f00845a995c0083350b939402c4242f72d62c8fef2b2db088a35a9f4ec741c701a45d228b160000000000000000000000000000000000000000000000000000000000000002c001a0715b93f55138aa6e0430bd9b39196cac0db5b46b6740645f921354ed1936dab2a0722391ea8d50f3d8d6294fbd92093ee66ff4a95ecc4831645394d7cd6aa804c5\\\"],\\\"id\\\":53,\\\"jsonrpc\\\":\\\"2.0\\\"}\",\"requestMethod\":\"POST\",\"url\":\"https://yellowstone-rpc.litprotocol.com/\"},\"method\":\"sendTransaction\",\"transaction\":{\"type\":2,\"chainId\":175188,\"nonce\":497,\"maxPriorityFeePerGas\":{\"type\":\"BigNumber\",\"hex\":\"0x59682f00\"},\"maxFeePerGas\":{\"type\":\"BigNumber\",\"hex\":\"0x5a995c00\"},\"gasPrice\":null,\"gasLimit\":{\"type\":\"BigNumber\",\"hex\":\"0x350b93\"},\"to\":\"0x02C4242F72d62c8fEF2b2DB088A35a9F4ec741C7\",\"value\":{\"type\":\"BigNumber\",\"hex\":\"0x01\"},\"data\":\"0x5d228b160000000000000000000000000000000000000000000000000000000000000002\",\"accessList\":[],\"hash\":\"0xfcf6b4901bf46e22624360d7a31e55c78813b86aa206a78b58e08f0402a798c2\",\"v\":1,\"r\":\"0x715b93f55138aa6e0430bd9b39196cac0db5b46b6740645f921354ed1936dab2\",\"s\":\"0x722391ea8d50f3d8d6294fbd92093ee66ff4a95ecc4831645394d7cd6aa804c5\",\"from\":\"0x6428B9170f12EaC6aBA3835775D2bf27e2D6EAd4\",\"confirmations\":0},\"transactionHash\":\"0xfcf6b4901bf46e22624360d7a31e55c78813b86aa206a78b58e08f0402a798c2\"}"}
{"timestamp":"2024-09-08T05:44:04.315Z","type":"test_result","status":"success","index":2,"totalRuns":3,"startTime":"1725774232766","endTime":"1725774244315","duration":11549,"response":{"r":"d57248366c5e99d9b8b07cd52eb576328165973d8b427a54236dd8d1fb21ddc3","s":"59fbbc208d73cbbf33ee729edb9a8b869bb3c3c04d69814acb6dd2dad48906ad","recid":0,"signature":"0xd57248366c5e99d9b8b07cd52eb576328165973d8b427a54236dd8d1fb21ddc359fbbc208d73cbbf33ee729edb9a8b869bb3c3c04d69814acb6dd2dad48906ad1b","publicKey":"0490B4A3D1932F343F52C1D475A51EF9EDF56CAC2CF120F7395D5940E2E8601325BD772DFE5C5867A209F886B32ADDCFD2D6349E35514F8D161FC9A55B6D53C20F","dataSigned":"54686973206D6573736167652069732065786163746C79203332206279746573"}}
{"timestamp":"2024-09-08T05:44:18.294Z","type":"test_result","status":"success","index":3,"totalRuns":3,"startTime":"1725774244317","endTime":"1725774258294","duration":13977,"response":{"r":"f3bd2fa4c3201c89586384d4784b3e112e901559c11f5559104909f911ea48a3","s":"0c6875afbe589410cf17430bf2d15f953ae38ed1d1056eaf477037317b4a8586","recid":1,"signature":"0xf3bd2fa4c3201c89586384d4784b3e112e901559c11f5559104909f911ea48a30c6875afbe589410cf17430bf2d15f953ae38ed1d1056eaf477037317b4a85861c","publicKey":"04053010931F9B2E75E401EA5BDA95FC478CCE56884B072AE8717A4498D150FEC7D51FAB19C0BB3F6D86FE01305E09742AC1826A1E4284CD6DC542255315ED3CBE","dataSigned":"54686973206D6573736167652069732065786163746C79203332206279746573"}}
{"timestamp":"2024-09-08T05:44:18.295Z","type":"test_summary","uuid":"372c870d-4a66-49c1-b7ef-22b00f8a2043","status":"test_completed","LIT_NETWORK":"datil-dev","totalRuns":3,"successfulRuns":2,"failedRuns":1,"startTimeTotal":"1725774228506","endTimeTotal":"1725774258295","averageDuration":12763}
{"timestamp":"2024-09-08T05:44:18.296Z","type":"test_failure_summary","message":"1 tests failed. Check the log file for details."}
