{"timestamp":"2024-09-04T01:15:03.828Z","type":"test_start","uuid":"c8525e40-f5c8-49c3-a8b1-f427f91e18b6","test":"pkpSign","lit_network":"datil-dev","total_runs":"3","parallel_runs":"1","delay_between_tests":"1500","log_file_path":"./logs/datil-dev-pkp-sign-test-log-2024-09-04T01-15-03.821Z.log"}
{"timestamp":"2024-09-04T01:15:18.591Z","type":"test_result","status":"success","index":1,"totalRuns":3,"startTime":"1725412503841","endTime":"1725412518591","duration":14750,"response":{"r":"59c933612e9a1c0064c48871cc9bd924ca2d6269bbaae939075de45fb5e6b55b","s":"7a456ffdf5a531c225d95553ddb0ea85a03d6b13b204c476c6b67d86b9bb9e9a","recid":1,"signature":"0x59c933612e9a1c0064c48871cc9bd924ca2d6269bbaae939075de45fb5e6b55b7a456ffdf5a531c225d95553ddb0ea85a03d6b13b204c476c6b67d86b9bb9e9a1c","publicKey":"04527FA4B71AF7823304B40F2EDF2073676E86A118555462C2770F2A1C95C9D30F13E8401C072127899AC9AEE97EC679C3F462C85304499E8D32823ED4ED5CF70A","dataSigned":"54686973206D6573736167652069732065786163746C79203332206279746573"}}
{"timestamp":"2024-09-04T01:15:23.338Z","type":"test_result","index":2,"totalRuns":3,"status":"error","error":"nonce has already been used [ See: https://links.ethers.org/v5-errors-NONCE_EXPIRED ] (error={\"reason\":\"processing response error\",\"code\":\"SERVER_ERROR\",\"body\":\"{\\\"jsonrpc\\\":\\\"2.0\\\",\\\"error\\\":{\\\"code\\\":-32000,\\\"message\\\":\\\"nonce too low: address 0x6428B9170f12EaC6aBA3835775D2bf27e2D6EAd4, tx: 471 state: 472\\\"},\\\"id\\\":53}\\n\",\"error\":{\"code\":-32000},\"requestBody\":\"{\\\"method\\\":\\\"eth_sendRawTransaction\\\",\\\"params\\\":[\\\"0x02f8948302ac548201d78459682f00845a995c008334f66e9402c4242f72d62c8fef2b2db088a35a9f4ec741c701a45d228b160000000000000000000000000000000000000000000000000000000000000002c080a0ed691ef5ca1c3e43448984a337001d8cae7de683810fb7e62117c04af9ee3f81a06c6699428f7b9377782a82bd4b4e2802a9229a20ca0f6231748d0f0a72aa5d37\\\"],\\\"id\\\":53,\\\"jsonrpc\\\":\\\"2.0\\\"}\",\"requestMethod\":\"POST\",\"url\":\"https://yellowstone-rpc.litprotocol.com/\"}, method=\"sendTransaction\", transaction=\"0x02f8948302ac548201d78459682f00845a995c008334f66e9402c4242f72d62c8fef2b2db088a35a9f4ec741c701a45d228b160000000000000000000000000000000000000000000000000000000000000002c080a0ed691ef5ca1c3e43448984a337001d8cae7de683810fb7e62117c04af9ee3f81a06c6699428f7b9377782a82bd4b4e2802a9229a20ca0f6231748d0f0a72aa5d37\", code=NONCE_EXPIRED, version=providers/5.7.2)","stack":"Error: nonce has already been used [ See: https://links.ethers.org/v5-errors-NONCE_EXPIRED ] (error={\"reason\":\"processing response error\",\"code\":\"SERVER_ERROR\",\"body\":\"{\\\"jsonrpc\\\":\\\"2.0\\\",\\\"error\\\":{\\\"code\\\":-32000,\\\"message\\\":\\\"nonce too low: address 0x6428B9170f12EaC6aBA3835775D2bf27e2D6EAd4, tx: 471 state: 472\\\"},\\\"id\\\":53}\\n\",\"error\":{\"code\":-32000},\"requestBody\":\"{\\\"method\\\":\\\"eth_sendRawTransaction\\\",\\\"params\\\":[\\\"0x02f8948302ac548201d78459682f00845a995c008334f66e9402c4242f72d62c8fef2b2db088a35a9f4ec741c701a45d228b160000000000000000000000000000000000000000000000000000000000000002c080a0ed691ef5ca1c3e43448984a337001d8cae7de683810fb7e62117c04af9ee3f81a06c6699428f7b9377782a82bd4b4e2802a9229a20ca0f6231748d0f0a72aa5d37\\\"],\\\"id\\\":53,\\\"jsonrpc\\\":\\\"2.0\\\"}\",\"requestMethod\":\"POST\",\"url\":\"https://yellowstone-rpc.litprotocol.com/\"}, method=\"sendTransaction\", transaction=\"0x02f8948302ac548201d78459682f00845a995c008334f66e9402c4242f72d62c8fef2b2db088a35a9f4ec741c701a45d228b160000000000000000000000000000000000000000000000000000000000000002c080a0ed691ef5ca1c3e43448984a337001d8cae7de683810fb7e62117c04af9ee3f81a06c6699428f7b9377782a82bd4b4e2802a9229a20ca0f6231748d0f0a72aa5d37\", code=NONCE_EXPIRED, version=providers/5.7.2)\n    at Logger.Object.<anonymous>.Logger.makeError (/Users/anshs/Folder/works/lit/forks/lit-monitoring/node_modules/@ethersproject/logger/src.ts/index.ts:269:28)\n    at Logger.Object.<anonymous>.Logger.throwError (/Users/anshs/Folder/works/lit/forks/lit-monitoring/node_modules/@ethersproject/logger/src.ts/index.ts:281:20)\n    at checkError (/Users/anshs/Folder/works/lit/forks/lit-monitoring/node_modules/@ethersproject/providers/src.ts/json-rpc-provider.ts:105:16)\n    at JsonRpcProvider.<anonymous> (/Users/anshs/Folder/works/lit/forks/lit-monitoring/node_modules/@ethersproject/providers/src.ts/json-rpc-provider.ts:642:20)\n    at step (/Users/anshs/Folder/works/lit/forks/lit-monitoring/node_modules/@ethersproject/providers/lib/json-rpc-provider.js:48:23)\n    at Object.throw (/Users/anshs/Folder/works/lit/forks/lit-monitoring/node_modules/@ethersproject/providers/lib/json-rpc-provider.js:29:53)\n    at rejected (/Users/anshs/Folder/works/lit/forks/lit-monitoring/node_modules/@ethersproject/providers/lib/json-rpc-provider.js:21:65)\n    at processTicksAndRejections (node:internal/process/task_queues:95:5)","fullError":"{\"reason\":\"nonce has already been used\",\"code\":\"NONCE_EXPIRED\",\"error\":{\"reason\":\"processing response error\",\"code\":\"SERVER_ERROR\",\"body\":\"{\\\"jsonrpc\\\":\\\"2.0\\\",\\\"error\\\":{\\\"code\\\":-32000,\\\"message\\\":\\\"nonce too low: address 0x6428B9170f12EaC6aBA3835775D2bf27e2D6EAd4, tx: 471 state: 472\\\"},\\\"id\\\":53}\\n\",\"error\":{\"code\":-32000},\"requestBody\":\"{\\\"method\\\":\\\"eth_sendRawTransaction\\\",\\\"params\\\":[\\\"0x02f8948302ac548201d78459682f00845a995c008334f66e9402c4242f72d62c8fef2b2db088a35a9f4ec741c701a45d228b160000000000000000000000000000000000000000000000000000000000000002c080a0ed691ef5ca1c3e43448984a337001d8cae7de683810fb7e62117c04af9ee3f81a06c6699428f7b9377782a82bd4b4e2802a9229a20ca0f6231748d0f0a72aa5d37\\\"],\\\"id\\\":53,\\\"jsonrpc\\\":\\\"2.0\\\"}\",\"requestMethod\":\"POST\",\"url\":\"https://yellowstone-rpc.litprotocol.com/\"},\"method\":\"sendTransaction\",\"transaction\":{\"type\":2,\"chainId\":175188,\"nonce\":471,\"maxPriorityFeePerGas\":{\"type\":\"BigNumber\",\"hex\":\"0x59682f00\"},\"maxFeePerGas\":{\"type\":\"BigNumber\",\"hex\":\"0x5a995c00\"},\"gasPrice\":null,\"gasLimit\":{\"type\":\"BigNumber\",\"hex\":\"0x34f66e\"},\"to\":\"0x02C4242F72d62c8fEF2b2DB088A35a9F4ec741C7\",\"value\":{\"type\":\"BigNumber\",\"hex\":\"0x01\"},\"data\":\"0x5d228b160000000000000000000000000000000000000000000000000000000000000002\",\"accessList\":[],\"hash\":\"0x60a32cfaa2faa3f57381ddc0636a934bcfbf9393961e597348e97fa34b50da6e\",\"v\":0,\"r\":\"0xed691ef5ca1c3e43448984a337001d8cae7de683810fb7e62117c04af9ee3f81\",\"s\":\"0x6c6699428f7b9377782a82bd4b4e2802a9229a20ca0f6231748d0f0a72aa5d37\",\"from\":\"0x6428B9170f12EaC6aBA3835775D2bf27e2D6EAd4\",\"confirmations\":0},\"transactionHash\":\"0x60a32cfaa2faa3f57381ddc0636a934bcfbf9393961e597348e97fa34b50da6e\"}"}
{"timestamp":"2024-09-04T01:15:35.095Z","type":"test_result","status":"success","index":3,"totalRuns":3,"startTime":"1725412523341","endTime":"1725412535095","duration":11754,"response":{"r":"8370b2ce9349f6483e6b949a7b1ceeff09aa4547223a3d77804f937d0f4dd118","s":"134554ec142d3bd0d63b3bc3ec7f4ea47f4a7041d6414fa498b57f008a649a4d","recid":0,"signature":"0x8370b2ce9349f6483e6b949a7b1ceeff09aa4547223a3d77804f937d0f4dd118134554ec142d3bd0d63b3bc3ec7f4ea47f4a7041d6414fa498b57f008a649a4d1b","publicKey":"042E017C0E84F0AB4E60854450CFB9E5C4D745E427394AEFB952AF1D848FCBB065E5D09FC60FDDCF127DD135DAE9B535F8C493861C49C0F5792B427AF18D8D8FC9","dataSigned":"54686973206D6573736167652069732065786163746C79203332206279746573"}}
{"timestamp":"2024-09-04T01:15:35.097Z","type":"test_summary","uuid":"c8525e40-f5c8-49c3-a8b1-f427f91e18b6","status":"test_completed","LIT_NETWORK":"datil-dev","totalRuns":3,"successfulRuns":2,"failedRuns":1,"startTimeTotal":"1725412503827","endTimeTotal":"1725412535096","averageDuration":13252}
{"timestamp":"2024-09-04T01:15:35.097Z","type":"test_failure_summary","message":"1 tests failed. Check the log file for details."}
