{"timestamp":"2024-09-06T13:55:01.349Z","type":"test_start","uuid":"b791cd9e-7b47-41d9-9e6c-a82dba31eddd","test":"executeJs","lit_network":"datil-dev","total_runs":"3","parallel_runs":"1","delay_between_tests":"1000","log_file_path":"./logs/datil-dev-execute-js-test-log-2024-09-06T13-55-01.340Z.log"}
{"timestamp":"2024-09-06T13:55:06.600Z","type":"test_result","index":1,"totalRuns":3,"status":"error","error":"nonce has already been used [ See: https://links.ethers.org/v5-errors-NONCE_EXPIRED ] (error={\"reason\":\"processing response error\",\"code\":\"SERVER_ERROR\",\"body\":\"{\\\"jsonrpc\\\":\\\"2.0\\\",\\\"error\\\":{\\\"code\\\":-32000,\\\"message\\\":\\\"nonce too low: address 0x6428B9170f12EaC6aBA3835775D2bf27e2D6EAd4, tx: 477 state: 478\\\"},\\\"id\\\":53}\\n\",\"error\":{\"code\":-32000},\"requestBody\":\"{\\\"method\\\":\\\"eth_sendRawTransaction\\\",\\\"params\\\":[\\\"0x02f8948302ac548201dd8459682f00845a995c008334fcaa9402c4242f72d62c8fef2b2db088a35a9f4ec741c701a45d228b160000000000000000000000000000000000000000000000000000000000000002c001a0dc674c0051362e33e3106a868dc1b019b101cb7a0b0d54d41e29cc810c869a59a023d51dc476d1c222eba2609712b44d452074d95fbb5c1e0c24db4d05493a41a1\\\"],\\\"id\\\":53,\\\"jsonrpc\\\":\\\"2.0\\\"}\",\"requestMethod\":\"POST\",\"url\":\"https://yellowstone-rpc.litprotocol.com/\"}, method=\"sendTransaction\", transaction=\"0x02f8948302ac548201dd8459682f00845a995c008334fcaa9402c4242f72d62c8fef2b2db088a35a9f4ec741c701a45d228b160000000000000000000000000000000000000000000000000000000000000002c001a0dc674c0051362e33e3106a868dc1b019b101cb7a0b0d54d41e29cc810c869a59a023d51dc476d1c222eba2609712b44d452074d95fbb5c1e0c24db4d05493a41a1\", code=NONCE_EXPIRED, version=providers/5.7.2)","stack":"Error: nonce has already been used [ See: https://links.ethers.org/v5-errors-NONCE_EXPIRED ] (error={\"reason\":\"processing response error\",\"code\":\"SERVER_ERROR\",\"body\":\"{\\\"jsonrpc\\\":\\\"2.0\\\",\\\"error\\\":{\\\"code\\\":-32000,\\\"message\\\":\\\"nonce too low: address 0x6428B9170f12EaC6aBA3835775D2bf27e2D6EAd4, tx: 477 state: 478\\\"},\\\"id\\\":53}\\n\",\"error\":{\"code\":-32000},\"requestBody\":\"{\\\"method\\\":\\\"eth_sendRawTransaction\\\",\\\"params\\\":[\\\"0x02f8948302ac548201dd8459682f00845a995c008334fcaa9402c4242f72d62c8fef2b2db088a35a9f4ec741c701a45d228b160000000000000000000000000000000000000000000000000000000000000002c001a0dc674c0051362e33e3106a868dc1b019b101cb7a0b0d54d41e29cc810c869a59a023d51dc476d1c222eba2609712b44d452074d95fbb5c1e0c24db4d05493a41a1\\\"],\\\"id\\\":53,\\\"jsonrpc\\\":\\\"2.0\\\"}\",\"requestMethod\":\"POST\",\"url\":\"https://yellowstone-rpc.litprotocol.com/\"}, method=\"sendTransaction\", transaction=\"0x02f8948302ac548201dd8459682f00845a995c008334fcaa9402c4242f72d62c8fef2b2db088a35a9f4ec741c701a45d228b160000000000000000000000000000000000000000000000000000000000000002c001a0dc674c0051362e33e3106a868dc1b019b101cb7a0b0d54d41e29cc810c869a59a023d51dc476d1c222eba2609712b44d452074d95fbb5c1e0c24db4d05493a41a1\", code=NONCE_EXPIRED, version=providers/5.7.2)\n    at Logger.Object.<anonymous>.Logger.makeError (/Users/anshs/Folder/works/lit/forks/lit-monitoring/server/node_modules/@ethersproject/logger/src.ts/index.ts:269:28)\n    at Logger.Object.<anonymous>.Logger.throwError (/Users/anshs/Folder/works/lit/forks/lit-monitoring/server/node_modules/@ethersproject/logger/src.ts/index.ts:281:20)\n    at checkError (/Users/anshs/Folder/works/lit/forks/lit-monitoring/server/node_modules/@ethersproject/providers/src.ts/json-rpc-provider.ts:105:16)\n    at JsonRpcProvider.<anonymous> (/Users/anshs/Folder/works/lit/forks/lit-monitoring/server/node_modules/@ethersproject/providers/src.ts/json-rpc-provider.ts:642:20)\n    at step (/Users/anshs/Folder/works/lit/forks/lit-monitoring/server/node_modules/@ethersproject/providers/lib/json-rpc-provider.js:48:23)\n    at Object.throw (/Users/anshs/Folder/works/lit/forks/lit-monitoring/server/node_modules/@ethersproject/providers/lib/json-rpc-provider.js:29:53)\n    at rejected (/Users/anshs/Folder/works/lit/forks/lit-monitoring/server/node_modules/@ethersproject/providers/lib/json-rpc-provider.js:21:65)\n    at processTicksAndRejections (node:internal/process/task_queues:95:5)","fullError":"{\"reason\":\"nonce has already been used\",\"code\":\"NONCE_EXPIRED\",\"error\":{\"reason\":\"processing response error\",\"code\":\"SERVER_ERROR\",\"body\":\"{\\\"jsonrpc\\\":\\\"2.0\\\",\\\"error\\\":{\\\"code\\\":-32000,\\\"message\\\":\\\"nonce too low: address 0x6428B9170f12EaC6aBA3835775D2bf27e2D6EAd4, tx: 477 state: 478\\\"},\\\"id\\\":53}\\n\",\"error\":{\"code\":-32000},\"requestBody\":\"{\\\"method\\\":\\\"eth_sendRawTransaction\\\",\\\"params\\\":[\\\"0x02f8948302ac548201dd8459682f00845a995c008334fcaa9402c4242f72d62c8fef2b2db088a35a9f4ec741c701a45d228b160000000000000000000000000000000000000000000000000000000000000002c001a0dc674c0051362e33e3106a868dc1b019b101cb7a0b0d54d41e29cc810c869a59a023d51dc476d1c222eba2609712b44d452074d95fbb5c1e0c24db4d05493a41a1\\\"],\\\"id\\\":53,\\\"jsonrpc\\\":\\\"2.0\\\"}\",\"requestMethod\":\"POST\",\"url\":\"https://yellowstone-rpc.litprotocol.com/\"},\"method\":\"sendTransaction\",\"transaction\":{\"type\":2,\"chainId\":175188,\"nonce\":477,\"maxPriorityFeePerGas\":{\"type\":\"BigNumber\",\"hex\":\"0x59682f00\"},\"maxFeePerGas\":{\"type\":\"BigNumber\",\"hex\":\"0x5a995c00\"},\"gasPrice\":null,\"gasLimit\":{\"type\":\"BigNumber\",\"hex\":\"0x34fcaa\"},\"to\":\"0x02C4242F72d62c8fEF2b2DB088A35a9F4ec741C7\",\"value\":{\"type\":\"BigNumber\",\"hex\":\"0x01\"},\"data\":\"0x5d228b160000000000000000000000000000000000000000000000000000000000000002\",\"accessList\":[],\"hash\":\"0x09179103ed7414c9958804a34e1533555ba89d06578f13cec18b4b6ef202b2ee\",\"v\":1,\"r\":\"0xdc674c0051362e33e3106a868dc1b019b101cb7a0b0d54d41e29cc810c869a59\",\"s\":\"0x23d51dc476d1c222eba2609712b44d452074d95fbb5c1e0c24db4d05493a41a1\",\"from\":\"0x6428B9170f12EaC6aBA3835775D2bf27e2D6EAd4\",\"confirmations\":0},\"transactionHash\":\"0x09179103ed7414c9958804a34e1533555ba89d06578f13cec18b4b6ef202b2ee\"}"}
{"timestamp":"2024-09-06T13:55:18.258Z","type":"test_result","status":"success","index":2,"totalRuns":3,"startTime":"1725630906603","endTime":"1725630918258","duration":11655,"response":{"claims":{},"signatures":{"sig":{"r":"330cbd4e2bafeec647836bb92ca82a0ae4577d17449e5857f5dcb48291be3996","s":"08b24e8d2d7fbbe032a968500bd722ff816f244f584e0734ccb8674488b269f1","recid":1,"signature":"0x330cbd4e2bafeec647836bb92ca82a0ae4577d17449e5857f5dcb48291be399608b24e8d2d7fbbe032a968500bd722ff816f244f584e0734ccb8674488b269f11c","publicKey":"04F3E03164712335B7413CFE9779ACDED9FD523FB52A39C0318886895F198466F4E9A7D2573BD6DB940548AC6ADDAE31E47EA9E476F3AC3FDDF49E83705B15BFA7","dataSigned":"54686973206D6573736167652069732065786163746C79203332206279746573"}},"response":"","logs":""}}
{"timestamp":"2024-09-06T13:55:29.636Z","type":"test_result","status":"success","index":3,"totalRuns":3,"startTime":"1725630918260","endTime":"1725630929636","duration":11376,"response":{"claims":{},"signatures":{"sig":{"r":"11d04376943feb4ca839bff628860e52d151020f21956b641fcd77ea01d50515","s":"6ff91e66b296647dbb6bb13d0f829a7b70c2267aba535a299b4572045fa0464b","recid":0,"signature":"0x11d04376943feb4ca839bff628860e52d151020f21956b641fcd77ea01d505156ff91e66b296647dbb6bb13d0f829a7b70c2267aba535a299b4572045fa0464b1b","publicKey":"04528E658614C50F4ED59641BAA95DE9556CA8A4CC9FAE2BAA426B33FF4EC2660CA94FA246F283A679477F2AD1ECEDDD8A8D64B04E29B1224491A6B50A73435DEC","dataSigned":"54686973206D6573736167652069732065786163746C79203332206279746573"}},"response":"","logs":""}}
{"timestamp":"2024-09-06T13:55:29.637Z","type":"test_summary","uuid":"b791cd9e-7b47-41d9-9e6c-a82dba31eddd","status":"test_completed","LIT_NETWORK":"datil-dev","totalRuns":3,"successfulRuns":2,"failedRuns":1,"startTimeTotal":"1725630901349","endTimeTotal":"1725630929637","averageDuration":11515.5}
{"timestamp":"2024-09-06T13:55:29.638Z","type":"test_failure_summary","message":"1 tests failed. Check the log file for details."}
