{"timestamp":"2024-09-14T07:59:36.072Z","type":"test_start","uuid":"2cf55e83-c79c-4bd9-a973-511675041e7d","test_function":"pkpMint","lit_network":"datil-dev","total_runs":"3","parallel_runs":"1","delay_between_tests":"1000","log_file_path":"./logs/datil-dev-pkp-mint-test-log-2024-09-14T07-59-36.066Z.log"}
{"timestamp":"2024-09-14T07:59:40.097Z","type":"test_result","index":1,"totalRuns":3,"status":"error","error":"insufficient funds for intrinsic transaction cost [ See: https://links.ethers.org/v5-errors-INSUFFICIENT_FUNDS ] (error={\"reason\":\"processing response error\",\"code\":\"SERVER_ERROR\",\"body\":\"{\\\"jsonrpc\\\":\\\"2.0\\\",\\\"error\\\":{\\\"code\\\":-32000,\\\"message\\\":\\\"insufficient funds for gas * price + value: address 0x6428B9170f12EaC6aBA3835775D2bf27e2D6EAd4 have 5262254636429673 want 5327662320000001\\\"},\\\"id\\\":53}\\n\",\"error\":{\"code\":-32000},\"requestBody\":\"{\\\"method\\\":\\\"eth_sendRawTransaction\\\",\\\"params\\\":[\\\"0x02f8948302ac548201fb8459682f00845a995c0083357b919402c4242f72d62c8fef2b2db088a35a9f4ec741c701a45d228b160000000000000000000000000000000000000000000000000000000000000002c001a0e9b84b7f237aa3c97e1470ed1a230471d954f89b74610f90839212994dff5626a0469ddba9ceb51e568a1d527d1096852158c9adf09491334b96a278fa064c6d88\\\"],\\\"id\\\":53,\\\"jsonrpc\\\":\\\"2.0\\\"}\",\"requestMethod\":\"POST\",\"url\":\"https://yellowstone-rpc.litprotocol.com/\"}, method=\"sendTransaction\", transaction=\"0x02f8948302ac548201fb8459682f00845a995c0083357b919402c4242f72d62c8fef2b2db088a35a9f4ec741c701a45d228b160000000000000000000000000000000000000000000000000000000000000002c001a0e9b84b7f237aa3c97e1470ed1a230471d954f89b74610f90839212994dff5626a0469ddba9ceb51e568a1d527d1096852158c9adf09491334b96a278fa064c6d88\", code=INSUFFICIENT_FUNDS, version=providers/5.7.2)","stack":"Error: insufficient funds for intrinsic transaction cost [ See: https://links.ethers.org/v5-errors-INSUFFICIENT_FUNDS ] (error={\"reason\":\"processing response error\",\"code\":\"SERVER_ERROR\",\"body\":\"{\\\"jsonrpc\\\":\\\"2.0\\\",\\\"error\\\":{\\\"code\\\":-32000,\\\"message\\\":\\\"insufficient funds for gas * price + value: address 0x6428B9170f12EaC6aBA3835775D2bf27e2D6EAd4 have 5262254636429673 want 5327662320000001\\\"},\\\"id\\\":53}\\n\",\"error\":{\"code\":-32000},\"requestBody\":\"{\\\"method\\\":\\\"eth_sendRawTransaction\\\",\\\"params\\\":[\\\"0x02f8948302ac548201fb8459682f00845a995c0083357b919402c4242f72d62c8fef2b2db088a35a9f4ec741c701a45d228b160000000000000000000000000000000000000000000000000000000000000002c001a0e9b84b7f237aa3c97e1470ed1a230471d954f89b74610f90839212994dff5626a0469ddba9ceb51e568a1d527d1096852158c9adf09491334b96a278fa064c6d88\\\"],\\\"id\\\":53,\\\"jsonrpc\\\":\\\"2.0\\\"}\",\"requestMethod\":\"POST\",\"url\":\"https://yellowstone-rpc.litprotocol.com/\"}, method=\"sendTransaction\", transaction=\"0x02f8948302ac548201fb8459682f00845a995c0083357b919402c4242f72d62c8fef2b2db088a35a9f4ec741c701a45d228b160000000000000000000000000000000000000000000000000000000000000002c001a0e9b84b7f237aa3c97e1470ed1a230471d954f89b74610f90839212994dff5626a0469ddba9ceb51e568a1d527d1096852158c9adf09491334b96a278fa064c6d88\", code=INSUFFICIENT_FUNDS, version=providers/5.7.2)\n    at Logger.Object.<anonymous>.Logger.makeError (/Users/anshs/Folder/works/lit/projects/lit-monitoring/server/node_modules/@ethersproject/logger/src.ts/index.ts:269:28)\n    at Logger.Object.<anonymous>.Logger.throwError (/Users/anshs/Folder/works/lit/projects/lit-monitoring/server/node_modules/@ethersproject/logger/src.ts/index.ts:281:20)\n    at checkError (/Users/anshs/Folder/works/lit/projects/lit-monitoring/server/node_modules/@ethersproject/providers/src.ts/json-rpc-provider.ts:98:16)\n    at JsonRpcProvider.<anonymous> (/Users/anshs/Folder/works/lit/projects/lit-monitoring/server/node_modules/@ethersproject/providers/src.ts/json-rpc-provider.ts:642:20)\n    at step (/Users/anshs/Folder/works/lit/projects/lit-monitoring/server/node_modules/@ethersproject/providers/lib/json-rpc-provider.js:48:23)\n    at Object.throw (/Users/anshs/Folder/works/lit/projects/lit-monitoring/server/node_modules/@ethersproject/providers/lib/json-rpc-provider.js:29:53)\n    at rejected (/Users/anshs/Folder/works/lit/projects/lit-monitoring/server/node_modules/@ethersproject/providers/lib/json-rpc-provider.js:21:65)\n    at processTicksAndRejections (node:internal/process/task_queues:95:5)","fullError":"{\"reason\":\"insufficient funds for intrinsic transaction cost\",\"code\":\"INSUFFICIENT_FUNDS\",\"error\":{\"reason\":\"processing response error\",\"code\":\"SERVER_ERROR\",\"body\":\"{\\\"jsonrpc\\\":\\\"2.0\\\",\\\"error\\\":{\\\"code\\\":-32000,\\\"message\\\":\\\"insufficient funds for gas * price + value: address 0x6428B9170f12EaC6aBA3835775D2bf27e2D6EAd4 have 5262254636429673 want 5327662320000001\\\"},\\\"id\\\":53}\\n\",\"error\":{\"code\":-32000},\"requestBody\":\"{\\\"method\\\":\\\"eth_sendRawTransaction\\\",\\\"params\\\":[\\\"0x02f8948302ac548201fb8459682f00845a995c0083357b919402c4242f72d62c8fef2b2db088a35a9f4ec741c701a45d228b160000000000000000000000000000000000000000000000000000000000000002c001a0e9b84b7f237aa3c97e1470ed1a230471d954f89b74610f90839212994dff5626a0469ddba9ceb51e568a1d527d1096852158c9adf09491334b96a278fa064c6d88\\\"],\\\"id\\\":53,\\\"jsonrpc\\\":\\\"2.0\\\"}\",\"requestMethod\":\"POST\",\"url\":\"https://yellowstone-rpc.litprotocol.com/\"},\"method\":\"sendTransaction\",\"transaction\":{\"type\":2,\"chainId\":175188,\"nonce\":507,\"maxPriorityFeePerGas\":{\"type\":\"BigNumber\",\"hex\":\"0x59682f00\"},\"maxFeePerGas\":{\"type\":\"BigNumber\",\"hex\":\"0x5a995c00\"},\"gasPrice\":null,\"gasLimit\":{\"type\":\"BigNumber\",\"hex\":\"0x357b91\"},\"to\":\"0x02C4242F72d62c8fEF2b2DB088A35a9F4ec741C7\",\"value\":{\"type\":\"BigNumber\",\"hex\":\"0x01\"},\"data\":\"0x5d228b160000000000000000000000000000000000000000000000000000000000000002\",\"accessList\":[],\"hash\":\"0x52c9ab613861ecce7bab551c28ff296efd73aae1a1a28f33c8e6ae0c86925e64\",\"v\":1,\"r\":\"0xe9b84b7f237aa3c97e1470ed1a230471d954f89b74610f90839212994dff5626\",\"s\":\"0x469ddba9ceb51e568a1d527d1096852158c9adf09491334b96a278fa064c6d88\",\"from\":\"0x6428B9170f12EaC6aBA3835775D2bf27e2D6EAd4\",\"confirmations\":0},\"transactionHash\":\"0x52c9ab613861ecce7bab551c28ff296efd73aae1a1a28f33c8e6ae0c86925e64\"}"}
{"timestamp":"2024-09-14T07:59:43.762Z","type":"test_result","index":2,"totalRuns":3,"status":"error","error":"insufficient funds for intrinsic transaction cost [ See: https://links.ethers.org/v5-errors-INSUFFICIENT_FUNDS ] (error={\"reason\":\"processing response error\",\"code\":\"SERVER_ERROR\",\"body\":\"{\\\"jsonrpc\\\":\\\"2.0\\\",\\\"error\\\":{\\\"code\\\":-32000,\\\"message\\\":\\\"insufficient funds for gas * price + value: address 0x6428B9170f12EaC6aBA3835775D2bf27e2D6EAd4 have 5262254636429673 want 5292491040000001\\\"},\\\"id\\\":53}\\n\",\"error\":{\"code\":-32000},\"requestBody\":\"{\\\"method\\\":\\\"eth_sendRawTransaction\\\",\\\"params\\\":[\\\"0x02f8948302ac548201fb8459682f00845a995c008335212e9402c4242f72d62c8fef2b2db088a35a9f4ec741c701a45d228b160000000000000000000000000000000000000000000000000000000000000002c001a0f3ef8e51d4b27105f5d3db8aa955e76aa4659e60c76e7a95d5b298416a30d6baa076b28c01f6ad90bad1907b3e90a514cbcd3747347ab45d5862f5618913113df3\\\"],\\\"id\\\":53,\\\"jsonrpc\\\":\\\"2.0\\\"}\",\"requestMethod\":\"POST\",\"url\":\"https://yellowstone-rpc.litprotocol.com/\"}, method=\"sendTransaction\", transaction=\"0x02f8948302ac548201fb8459682f00845a995c008335212e9402c4242f72d62c8fef2b2db088a35a9f4ec741c701a45d228b160000000000000000000000000000000000000000000000000000000000000002c001a0f3ef8e51d4b27105f5d3db8aa955e76aa4659e60c76e7a95d5b298416a30d6baa076b28c01f6ad90bad1907b3e90a514cbcd3747347ab45d5862f5618913113df3\", code=INSUFFICIENT_FUNDS, version=providers/5.7.2)","stack":"Error: insufficient funds for intrinsic transaction cost [ See: https://links.ethers.org/v5-errors-INSUFFICIENT_FUNDS ] (error={\"reason\":\"processing response error\",\"code\":\"SERVER_ERROR\",\"body\":\"{\\\"jsonrpc\\\":\\\"2.0\\\",\\\"error\\\":{\\\"code\\\":-32000,\\\"message\\\":\\\"insufficient funds for gas * price + value: address 0x6428B9170f12EaC6aBA3835775D2bf27e2D6EAd4 have 5262254636429673 want 5292491040000001\\\"},\\\"id\\\":53}\\n\",\"error\":{\"code\":-32000},\"requestBody\":\"{\\\"method\\\":\\\"eth_sendRawTransaction\\\",\\\"params\\\":[\\\"0x02f8948302ac548201fb8459682f00845a995c008335212e9402c4242f72d62c8fef2b2db088a35a9f4ec741c701a45d228b160000000000000000000000000000000000000000000000000000000000000002c001a0f3ef8e51d4b27105f5d3db8aa955e76aa4659e60c76e7a95d5b298416a30d6baa076b28c01f6ad90bad1907b3e90a514cbcd3747347ab45d5862f5618913113df3\\\"],\\\"id\\\":53,\\\"jsonrpc\\\":\\\"2.0\\\"}\",\"requestMethod\":\"POST\",\"url\":\"https://yellowstone-rpc.litprotocol.com/\"}, method=\"sendTransaction\", transaction=\"0x02f8948302ac548201fb8459682f00845a995c008335212e9402c4242f72d62c8fef2b2db088a35a9f4ec741c701a45d228b160000000000000000000000000000000000000000000000000000000000000002c001a0f3ef8e51d4b27105f5d3db8aa955e76aa4659e60c76e7a95d5b298416a30d6baa076b28c01f6ad90bad1907b3e90a514cbcd3747347ab45d5862f5618913113df3\", code=INSUFFICIENT_FUNDS, version=providers/5.7.2)\n    at Logger.Object.<anonymous>.Logger.makeError (/Users/anshs/Folder/works/lit/projects/lit-monitoring/server/node_modules/@ethersproject/logger/src.ts/index.ts:269:28)\n    at Logger.Object.<anonymous>.Logger.throwError (/Users/anshs/Folder/works/lit/projects/lit-monitoring/server/node_modules/@ethersproject/logger/src.ts/index.ts:281:20)\n    at checkError (/Users/anshs/Folder/works/lit/projects/lit-monitoring/server/node_modules/@ethersproject/providers/src.ts/json-rpc-provider.ts:98:16)\n    at JsonRpcProvider.<anonymous> (/Users/anshs/Folder/works/lit/projects/lit-monitoring/server/node_modules/@ethersproject/providers/src.ts/json-rpc-provider.ts:642:20)\n    at step (/Users/anshs/Folder/works/lit/projects/lit-monitoring/server/node_modules/@ethersproject/providers/lib/json-rpc-provider.js:48:23)\n    at Object.throw (/Users/anshs/Folder/works/lit/projects/lit-monitoring/server/node_modules/@ethersproject/providers/lib/json-rpc-provider.js:29:53)\n    at rejected (/Users/anshs/Folder/works/lit/projects/lit-monitoring/server/node_modules/@ethersproject/providers/lib/json-rpc-provider.js:21:65)\n    at processTicksAndRejections (node:internal/process/task_queues:95:5)","fullError":"{\"reason\":\"insufficient funds for intrinsic transaction cost\",\"code\":\"INSUFFICIENT_FUNDS\",\"error\":{\"reason\":\"processing response error\",\"code\":\"SERVER_ERROR\",\"body\":\"{\\\"jsonrpc\\\":\\\"2.0\\\",\\\"error\\\":{\\\"code\\\":-32000,\\\"message\\\":\\\"insufficient funds for gas * price + value: address 0x6428B9170f12EaC6aBA3835775D2bf27e2D6EAd4 have 5262254636429673 want 5292491040000001\\\"},\\\"id\\\":53}\\n\",\"error\":{\"code\":-32000},\"requestBody\":\"{\\\"method\\\":\\\"eth_sendRawTransaction\\\",\\\"params\\\":[\\\"0x02f8948302ac548201fb8459682f00845a995c008335212e9402c4242f72d62c8fef2b2db088a35a9f4ec741c701a45d228b160000000000000000000000000000000000000000000000000000000000000002c001a0f3ef8e51d4b27105f5d3db8aa955e76aa4659e60c76e7a95d5b298416a30d6baa076b28c01f6ad90bad1907b3e90a514cbcd3747347ab45d5862f5618913113df3\\\"],\\\"id\\\":53,\\\"jsonrpc\\\":\\\"2.0\\\"}\",\"requestMethod\":\"POST\",\"url\":\"https://yellowstone-rpc.litprotocol.com/\"},\"method\":\"sendTransaction\",\"transaction\":{\"type\":2,\"chainId\":175188,\"nonce\":507,\"maxPriorityFeePerGas\":{\"type\":\"BigNumber\",\"hex\":\"0x59682f00\"},\"maxFeePerGas\":{\"type\":\"BigNumber\",\"hex\":\"0x5a995c00\"},\"gasPrice\":null,\"gasLimit\":{\"type\":\"BigNumber\",\"hex\":\"0x35212e\"},\"to\":\"0x02C4242F72d62c8fEF2b2DB088A35a9F4ec741C7\",\"value\":{\"type\":\"BigNumber\",\"hex\":\"0x01\"},\"data\":\"0x5d228b160000000000000000000000000000000000000000000000000000000000000002\",\"accessList\":[],\"hash\":\"0x308128b81f55fc5ac90a611e27be27251fa2bdeac097f72b8e58bb36a9aa1f78\",\"v\":1,\"r\":\"0xf3ef8e51d4b27105f5d3db8aa955e76aa4659e60c76e7a95d5b298416a30d6ba\",\"s\":\"0x76b28c01f6ad90bad1907b3e90a514cbcd3747347ab45d5862f5618913113df3\",\"from\":\"0x6428B9170f12EaC6aBA3835775D2bf27e2D6EAd4\",\"confirmations\":0},\"transactionHash\":\"0x308128b81f55fc5ac90a611e27be27251fa2bdeac097f72b8e58bb36a9aa1f78\"}"}
{"timestamp":"2024-09-14T07:59:47.328Z","type":"test_result","index":3,"totalRuns":3,"status":"error","error":"insufficient funds for intrinsic transaction cost [ See: https://links.ethers.org/v5-errors-INSUFFICIENT_FUNDS ] (error={\"reason\":\"processing response error\",\"code\":\"SERVER_ERROR\",\"body\":\"{\\\"jsonrpc\\\":\\\"2.0\\\",\\\"error\\\":{\\\"code\\\":-32000,\\\"message\\\":\\\"insufficient funds for gas * price + value: address 0x6428B9170f12EaC6aBA3835775D2bf27e2D6EAd4 have 5262254636429673 want 5292491040000001\\\"},\\\"id\\\":53}\\n\",\"error\":{\"code\":-32000},\"requestBody\":\"{\\\"method\\\":\\\"eth_sendRawTransaction\\\",\\\"params\\\":[\\\"0x02f8948302ac548201fb8459682f00845a995c008335212e9402c4242f72d62c8fef2b2db088a35a9f4ec741c701a45d228b160000000000000000000000000000000000000000000000000000000000000002c001a0f3ef8e51d4b27105f5d3db8aa955e76aa4659e60c76e7a95d5b298416a30d6baa076b28c01f6ad90bad1907b3e90a514cbcd3747347ab45d5862f5618913113df3\\\"],\\\"id\\\":53,\\\"jsonrpc\\\":\\\"2.0\\\"}\",\"requestMethod\":\"POST\",\"url\":\"https://yellowstone-rpc.litprotocol.com/\"}, method=\"sendTransaction\", transaction=\"0x02f8948302ac548201fb8459682f00845a995c008335212e9402c4242f72d62c8fef2b2db088a35a9f4ec741c701a45d228b160000000000000000000000000000000000000000000000000000000000000002c001a0f3ef8e51d4b27105f5d3db8aa955e76aa4659e60c76e7a95d5b298416a30d6baa076b28c01f6ad90bad1907b3e90a514cbcd3747347ab45d5862f5618913113df3\", code=INSUFFICIENT_FUNDS, version=providers/5.7.2)","stack":"Error: insufficient funds for intrinsic transaction cost [ See: https://links.ethers.org/v5-errors-INSUFFICIENT_FUNDS ] (error={\"reason\":\"processing response error\",\"code\":\"SERVER_ERROR\",\"body\":\"{\\\"jsonrpc\\\":\\\"2.0\\\",\\\"error\\\":{\\\"code\\\":-32000,\\\"message\\\":\\\"insufficient funds for gas * price + value: address 0x6428B9170f12EaC6aBA3835775D2bf27e2D6EAd4 have 5262254636429673 want 5292491040000001\\\"},\\\"id\\\":53}\\n\",\"error\":{\"code\":-32000},\"requestBody\":\"{\\\"method\\\":\\\"eth_sendRawTransaction\\\",\\\"params\\\":[\\\"0x02f8948302ac548201fb8459682f00845a995c008335212e9402c4242f72d62c8fef2b2db088a35a9f4ec741c701a45d228b160000000000000000000000000000000000000000000000000000000000000002c001a0f3ef8e51d4b27105f5d3db8aa955e76aa4659e60c76e7a95d5b298416a30d6baa076b28c01f6ad90bad1907b3e90a514cbcd3747347ab45d5862f5618913113df3\\\"],\\\"id\\\":53,\\\"jsonrpc\\\":\\\"2.0\\\"}\",\"requestMethod\":\"POST\",\"url\":\"https://yellowstone-rpc.litprotocol.com/\"}, method=\"sendTransaction\", transaction=\"0x02f8948302ac548201fb8459682f00845a995c008335212e9402c4242f72d62c8fef2b2db088a35a9f4ec741c701a45d228b160000000000000000000000000000000000000000000000000000000000000002c001a0f3ef8e51d4b27105f5d3db8aa955e76aa4659e60c76e7a95d5b298416a30d6baa076b28c01f6ad90bad1907b3e90a514cbcd3747347ab45d5862f5618913113df3\", code=INSUFFICIENT_FUNDS, version=providers/5.7.2)\n    at Logger.Object.<anonymous>.Logger.makeError (/Users/anshs/Folder/works/lit/projects/lit-monitoring/server/node_modules/@ethersproject/logger/src.ts/index.ts:269:28)\n    at Logger.Object.<anonymous>.Logger.throwError (/Users/anshs/Folder/works/lit/projects/lit-monitoring/server/node_modules/@ethersproject/logger/src.ts/index.ts:281:20)\n    at checkError (/Users/anshs/Folder/works/lit/projects/lit-monitoring/server/node_modules/@ethersproject/providers/src.ts/json-rpc-provider.ts:98:16)\n    at JsonRpcProvider.<anonymous> (/Users/anshs/Folder/works/lit/projects/lit-monitoring/server/node_modules/@ethersproject/providers/src.ts/json-rpc-provider.ts:642:20)\n    at step (/Users/anshs/Folder/works/lit/projects/lit-monitoring/server/node_modules/@ethersproject/providers/lib/json-rpc-provider.js:48:23)\n    at Object.throw (/Users/anshs/Folder/works/lit/projects/lit-monitoring/server/node_modules/@ethersproject/providers/lib/json-rpc-provider.js:29:53)\n    at rejected (/Users/anshs/Folder/works/lit/projects/lit-monitoring/server/node_modules/@ethersproject/providers/lib/json-rpc-provider.js:21:65)\n    at processTicksAndRejections (node:internal/process/task_queues:95:5)","fullError":"{\"reason\":\"insufficient funds for intrinsic transaction cost\",\"code\":\"INSUFFICIENT_FUNDS\",\"error\":{\"reason\":\"processing response error\",\"code\":\"SERVER_ERROR\",\"body\":\"{\\\"jsonrpc\\\":\\\"2.0\\\",\\\"error\\\":{\\\"code\\\":-32000,\\\"message\\\":\\\"insufficient funds for gas * price + value: address 0x6428B9170f12EaC6aBA3835775D2bf27e2D6EAd4 have 5262254636429673 want 5292491040000001\\\"},\\\"id\\\":53}\\n\",\"error\":{\"code\":-32000},\"requestBody\":\"{\\\"method\\\":\\\"eth_sendRawTransaction\\\",\\\"params\\\":[\\\"0x02f8948302ac548201fb8459682f00845a995c008335212e9402c4242f72d62c8fef2b2db088a35a9f4ec741c701a45d228b160000000000000000000000000000000000000000000000000000000000000002c001a0f3ef8e51d4b27105f5d3db8aa955e76aa4659e60c76e7a95d5b298416a30d6baa076b28c01f6ad90bad1907b3e90a514cbcd3747347ab45d5862f5618913113df3\\\"],\\\"id\\\":53,\\\"jsonrpc\\\":\\\"2.0\\\"}\",\"requestMethod\":\"POST\",\"url\":\"https://yellowstone-rpc.litprotocol.com/\"},\"method\":\"sendTransaction\",\"transaction\":{\"type\":2,\"chainId\":175188,\"nonce\":507,\"maxPriorityFeePerGas\":{\"type\":\"BigNumber\",\"hex\":\"0x59682f00\"},\"maxFeePerGas\":{\"type\":\"BigNumber\",\"hex\":\"0x5a995c00\"},\"gasPrice\":null,\"gasLimit\":{\"type\":\"BigNumber\",\"hex\":\"0x35212e\"},\"to\":\"0x02C4242F72d62c8fEF2b2DB088A35a9F4ec741C7\",\"value\":{\"type\":\"BigNumber\",\"hex\":\"0x01\"},\"data\":\"0x5d228b160000000000000000000000000000000000000000000000000000000000000002\",\"accessList\":[],\"hash\":\"0x308128b81f55fc5ac90a611e27be27251fa2bdeac097f72b8e58bb36a9aa1f78\",\"v\":1,\"r\":\"0xf3ef8e51d4b27105f5d3db8aa955e76aa4659e60c76e7a95d5b298416a30d6ba\",\"s\":\"0x76b28c01f6ad90bad1907b3e90a514cbcd3747347ab45d5862f5618913113df3\",\"from\":\"0x6428B9170f12EaC6aBA3835775D2bf27e2D6EAd4\",\"confirmations\":0},\"transactionHash\":\"0x308128b81f55fc5ac90a611e27be27251fa2bdeac097f72b8e58bb36a9aa1f78\"}"}
{"timestamp":"2024-09-14T07:59:47.330Z","type":"test_summary","uuid":"2cf55e83-c79c-4bd9-a973-511675041e7d","status":"test_completed","LIT_NETWORK":"datil-dev","totalRuns":3,"successfulRuns":0,"failedRuns":3,"startTimeTotal":"1726300776070","endTimeTotal":"1726300787330","averageDuration":0}
{"timestamp":"2024-09-14T07:59:47.331Z","type":"test_failure_summary","message":"3 tests failed. Check the log file for details."}
