{"timestamp":"2024-09-08T05:22:11.244Z","type":"test_start","uuid":"0e1d9632-0ff7-46f6-8398-6d6368bf6d7a","test_function":"pkpSign","lit_network":"datil-dev","total_runs":"3","parallel_runs":"1","delay_between_tests":"1500","log_file_path":"./logs/datil-dev-pkp-sign-test-log-2024-09-08T05-22-11.235Z.log"}
{"timestamp":"2024-09-08T05:22:25.519Z","type":"test_result","status":"success","index":1,"totalRuns":3,"startTime":"1725772931266","endTime":"1725772945519","duration":14253,"response":{"r":"eb9146605248f1f0d6924384e5ab341ac7de1389ed4b8066060b66e2b6d3e04c","s":"4622a05873af5d8164c0ae7e96aee12d72aa61cf1fad2b477c8ef045bdef029a","recid":0,"signature":"0xeb9146605248f1f0d6924384e5ab341ac7de1389ed4b8066060b66e2b6d3e04c4622a05873af5d8164c0ae7e96aee12d72aa61cf1fad2b477c8ef045bdef029a1b","publicKey":"0427088FFD2C7A9B5F7CEF822E5E2372CAC515208637F3A76DFC2BAEE22508DA58AE49706711A2AFA91E9E1C7D13BC7AC199404169EF2B6C040744CA715FA3F205","dataSigned":"54686973206D6573736167652069732065786163746C79203332206279746573"}}
{"timestamp":"2024-09-08T05:22:28.760Z","type":"test_result","index":2,"totalRuns":3,"status":"error","error":"nonce has already been used [ See: https://links.ethers.org/v5-errors-NONCE_EXPIRED ] (error={\"reason\":\"processing response error\",\"code\":\"SERVER_ERROR\",\"body\":\"{\\\"jsonrpc\\\":\\\"2.0\\\",\\\"error\\\":{\\\"code\\\":-32000,\\\"message\\\":\\\"nonce too low: address 0x6428B9170f12EaC6aBA3835775D2bf27e2D6EAd4, tx: 494 state: 495\\\"},\\\"id\\\":53}\\n\",\"error\":{\"code\":-32000},\"requestBody\":\"{\\\"method\\\":\\\"eth_sendRawTransaction\\\",\\\"params\\\":[\\\"0x02f8948302ac548201ee8459682f00845a995c00833553529402c4242f72d62c8fef2b2db088a35a9f4ec741c701a45d228b160000000000000000000000000000000000000000000000000000000000000002c001a0c4e9e80014a29eeb64c57c4e006fd25cab6ec578f0866d5856df969cd9369475a00b0d07c6b43eb570562fb21eaff86e68922461a39fcf60b8a5527b1cbdb90e4e\\\"],\\\"id\\\":53,\\\"jsonrpc\\\":\\\"2.0\\\"}\",\"requestMethod\":\"POST\",\"url\":\"https://yellowstone-rpc.litprotocol.com/\"}, method=\"sendTransaction\", transaction=\"0x02f8948302ac548201ee8459682f00845a995c00833553529402c4242f72d62c8fef2b2db088a35a9f4ec741c701a45d228b160000000000000000000000000000000000000000000000000000000000000002c001a0c4e9e80014a29eeb64c57c4e006fd25cab6ec578f0866d5856df969cd9369475a00b0d07c6b43eb570562fb21eaff86e68922461a39fcf60b8a5527b1cbdb90e4e\", code=NONCE_EXPIRED, version=providers/5.7.2)","stack":"Error: nonce has already been used [ See: https://links.ethers.org/v5-errors-NONCE_EXPIRED ] (error={\"reason\":\"processing response error\",\"code\":\"SERVER_ERROR\",\"body\":\"{\\\"jsonrpc\\\":\\\"2.0\\\",\\\"error\\\":{\\\"code\\\":-32000,\\\"message\\\":\\\"nonce too low: address 0x6428B9170f12EaC6aBA3835775D2bf27e2D6EAd4, tx: 494 state: 495\\\"},\\\"id\\\":53}\\n\",\"error\":{\"code\":-32000},\"requestBody\":\"{\\\"method\\\":\\\"eth_sendRawTransaction\\\",\\\"params\\\":[\\\"0x02f8948302ac548201ee8459682f00845a995c00833553529402c4242f72d62c8fef2b2db088a35a9f4ec741c701a45d228b160000000000000000000000000000000000000000000000000000000000000002c001a0c4e9e80014a29eeb64c57c4e006fd25cab6ec578f0866d5856df969cd9369475a00b0d07c6b43eb570562fb21eaff86e68922461a39fcf60b8a5527b1cbdb90e4e\\\"],\\\"id\\\":53,\\\"jsonrpc\\\":\\\"2.0\\\"}\",\"requestMethod\":\"POST\",\"url\":\"https://yellowstone-rpc.litprotocol.com/\"}, method=\"sendTransaction\", transaction=\"0x02f8948302ac548201ee8459682f00845a995c00833553529402c4242f72d62c8fef2b2db088a35a9f4ec741c701a45d228b160000000000000000000000000000000000000000000000000000000000000002c001a0c4e9e80014a29eeb64c57c4e006fd25cab6ec578f0866d5856df969cd9369475a00b0d07c6b43eb570562fb21eaff86e68922461a39fcf60b8a5527b1cbdb90e4e\", code=NONCE_EXPIRED, version=providers/5.7.2)\n    at Logger.Object.<anonymous>.Logger.makeError (/Users/anshs/Folder/works/lit/forks/lit-monitoring/server/node_modules/@ethersproject/logger/src.ts/index.ts:269:28)\n    at Logger.Object.<anonymous>.Logger.throwError (/Users/anshs/Folder/works/lit/forks/lit-monitoring/server/node_modules/@ethersproject/logger/src.ts/index.ts:281:20)\n    at checkError (/Users/anshs/Folder/works/lit/forks/lit-monitoring/server/node_modules/@ethersproject/providers/src.ts/json-rpc-provider.ts:105:16)\n    at JsonRpcProvider.<anonymous> (/Users/anshs/Folder/works/lit/forks/lit-monitoring/server/node_modules/@ethersproject/providers/src.ts/json-rpc-provider.ts:642:20)\n    at step (/Users/anshs/Folder/works/lit/forks/lit-monitoring/server/node_modules/@ethersproject/providers/lib/json-rpc-provider.js:48:23)\n    at Object.throw (/Users/anshs/Folder/works/lit/forks/lit-monitoring/server/node_modules/@ethersproject/providers/lib/json-rpc-provider.js:29:53)\n    at rejected (/Users/anshs/Folder/works/lit/forks/lit-monitoring/server/node_modules/@ethersproject/providers/lib/json-rpc-provider.js:21:65)\n    at processTicksAndRejections (node:internal/process/task_queues:95:5)","fullError":"{\"reason\":\"nonce has already been used\",\"code\":\"NONCE_EXPIRED\",\"error\":{\"reason\":\"processing response error\",\"code\":\"SERVER_ERROR\",\"body\":\"{\\\"jsonrpc\\\":\\\"2.0\\\",\\\"error\\\":{\\\"code\\\":-32000,\\\"message\\\":\\\"nonce too low: address 0x6428B9170f12EaC6aBA3835775D2bf27e2D6EAd4, tx: 494 state: 495\\\"},\\\"id\\\":53}\\n\",\"error\":{\"code\":-32000},\"requestBody\":\"{\\\"method\\\":\\\"eth_sendRawTransaction\\\",\\\"params\\\":[\\\"0x02f8948302ac548201ee8459682f00845a995c00833553529402c4242f72d62c8fef2b2db088a35a9f4ec741c701a45d228b160000000000000000000000000000000000000000000000000000000000000002c001a0c4e9e80014a29eeb64c57c4e006fd25cab6ec578f0866d5856df969cd9369475a00b0d07c6b43eb570562fb21eaff86e68922461a39fcf60b8a5527b1cbdb90e4e\\\"],\\\"id\\\":53,\\\"jsonrpc\\\":\\\"2.0\\\"}\",\"requestMethod\":\"POST\",\"url\":\"https://yellowstone-rpc.litprotocol.com/\"},\"method\":\"sendTransaction\",\"transaction\":{\"type\":2,\"chainId\":175188,\"nonce\":494,\"maxPriorityFeePerGas\":{\"type\":\"BigNumber\",\"hex\":\"0x59682f00\"},\"maxFeePerGas\":{\"type\":\"BigNumber\",\"hex\":\"0x5a995c00\"},\"gasPrice\":null,\"gasLimit\":{\"type\":\"BigNumber\",\"hex\":\"0x355352\"},\"to\":\"0x02C4242F72d62c8fEF2b2DB088A35a9F4ec741C7\",\"value\":{\"type\":\"BigNumber\",\"hex\":\"0x01\"},\"data\":\"0x5d228b160000000000000000000000000000000000000000000000000000000000000002\",\"accessList\":[],\"hash\":\"0xe09a964f55eab1ee928a4f139d2ca55e1c533bd5e46c27e7e899844ed86da536\",\"v\":1,\"r\":\"0xc4e9e80014a29eeb64c57c4e006fd25cab6ec578f0866d5856df969cd9369475\",\"s\":\"0x0b0d07c6b43eb570562fb21eaff86e68922461a39fcf60b8a5527b1cbdb90e4e\",\"from\":\"0x6428B9170f12EaC6aBA3835775D2bf27e2D6EAd4\",\"confirmations\":0},\"transactionHash\":\"0xe09a964f55eab1ee928a4f139d2ca55e1c533bd5e46c27e7e899844ed86da536\"}"}
{"timestamp":"2024-09-08T05:22:40.093Z","type":"test_result","status":"success","index":3,"totalRuns":3,"startTime":"1725772948762","endTime":"1725772960093","duration":11331,"response":{"r":"f47c9e105a19add5f026f02ac885ef064b7a85d6ec5f3d1ba956e17cf75d8b4e","s":"6cce46afbf398596b4df2ebc0cc1d3d54e2a6d907b035db3841c7bb013b826f8","recid":1,"signature":"0xf47c9e105a19add5f026f02ac885ef064b7a85d6ec5f3d1ba956e17cf75d8b4e6cce46afbf398596b4df2ebc0cc1d3d54e2a6d907b035db3841c7bb013b826f81c","publicKey":"041159690193AE94DBC2AEBD03C2EAB2E996675B8B0CA1BB9A48F56BE97A06C418EC293A1C83B6B7F5047926B735A2461C2C54F3B24C26924C7EF05C304C9F2075","dataSigned":"54686973206D6573736167652069732065786163746C79203332206279746573"}}
{"timestamp":"2024-09-08T05:22:40.095Z","type":"test_summary","uuid":"0e1d9632-0ff7-46f6-8398-6d6368bf6d7a","status":"test_completed","LIT_NETWORK":"datil-dev","totalRuns":3,"successfulRuns":2,"failedRuns":1,"startTimeTotal":"1725772931243","endTimeTotal":"1725772960094","averageDuration":12792}
{"timestamp":"2024-09-08T05:22:40.095Z","type":"test_failure_summary","message":"1 tests failed. Check the log file for details."}
